:100000000C945D000C9485000C9485000C94850084
:100010000C9485000C9485000C9485000C9485004C
:100020000C9485000C9485000C9485000C9485003C
:100030000C9485000C9485000C9485000C9485002C
:100040000C941E040C9485000C94EC030C94C603D1
:100050000C9485000C9485000C9485000C9485000C
:100060000C9485000C94850000000008000201003B
:100070000003040700000000000000000000000072
:10008000250028002B0000000000240027002A0083
:10009000040404040404040402020202020203032E
:1000A0000303030301020408102040800102040836
:1000B0001020010204081020940511241FBECFEF68
:1000C000D8E0DEBFCDBF11E0A0E0B1E0EAE6FFE09E
:1000D00002C005900D92A438B107D9F722E0A4E838
:1000E000B1E001C01D92AA32B207E1F710E0CDE500
:1000F000D0E004C02197FE010E94AD07CC35D107A6
:10010000C9F70E9468040C94B3070C94000090E0B7
:10011000FC01EC55FF4F249180579F4FFC018491C7
:10012000882399F090E0880F991FFC01EA57FF4F50
:10013000A591B491FC01E458FF4F859194918FB73C
:10014000F894EC91E22BEC938FBF0895AF92BF929D
:10015000CF92DF92EF92FF920F931F93CF93DF9393
:100160006C017B018B01040F151FEB015E01AE18C2
:10017000BF08C017D10759F06991D601ED91FC91E4
:100180000190F081E02DC6010995892B79F7C50111
:10019000DF91CF911F910F91FF90EF90DF90CF9063
:1001A000BF90AF900895FC01538D448D252F30E012
:1001B000842F90E0821B930B541710F0CF96089574
:1001C00001970895FC01918D828D981761F0A28DA1
:1001D000AE0FBF2FB11D5D968C91928D9F5F9F7367
:1001E000928F90E008958FEF9FEF0895FC01918D1D
:1001F000828D981731F0828DE80FF11D858D90E08A
:1002000008958FEF9FEF0895FC01918D228D892F26
:1002100090E0805C9F4F821B91098F73992708950E
:100220008DE891E00E94040121E0892B09F420E08F
:10023000822F089580E090E0892B29F00E94100120
:1002400081110C9400000895FC01A48DA80FB92F12
:10025000B11DA35ABF4F2C91848D90E001968F73EE
:100260009927848FA689B7892C93A089B1898C910D
:10027000837080648C93938D848D981306C002885C
:10028000F389E02D80818F7D80830895EF92FF9226
:100290000F931F93CF93DF93EC0181E0888F9B8DA9
:1002A0008C8D98131AC0E889F989808185FF15C063
:1002B0009FB7F894EE89FF896083E889F989808186
:1002C0008370806480839FBF81E090E0DF91CF9155
:1002D0001F910F91FF90EF900895F62E0B8D10E077
:1002E0000F5F1F4F0F731127E02E8C8D8E110CC0E6
:1002F0000FB607FCFACFE889F989808185FFF5CF31
:10030000CE010E942401F1CFEB8DEC0FFD2FF11DEA
:10031000E35AFF4FF0829FB7F8940B8FEA89FB896D
:1003200080818062CFCFCF93DF93EC01888D8823CB
:10033000B9F0AA89BB89E889F9898C9185FD03C048
:10034000808186FD0DC00FB607FCF7CF8C9185FF2D
:10035000F2CF808185FFEDCFCE010E942401E9CF4D
:10036000DF91CF91089590E0FC01E859FF4F24916F
:10037000FC01EC55FF4F3491FC01E057FF4FE49135
:10038000EE23C9F0222339F0233001F1A8F4213003
:1003900019F1223029F1F0E0EE0FFF1FE458FF4F72
:1003A000A591B4918FB7F894EC91611126C0309566
:1003B0003E233C938FBF08952730A9F02830C9F021
:1003C000243049F7809180008F7D03C080918000A8
:1003D0008F7780938000DFCF84B58F7784BDDBCFAC
:1003E00084B58F7DFBCF8091B0008F778093B00074
:1003F000D2CF8091B0008F7DF9CF3E2BDACFE82F9E
:10040000F0E0E859FF4FE491E33011F138F4E130C6
:10041000A9F0E230C1F060E00C94B301E73011F1D3
:10042000E83041F1E430B9F7809180008062809338
:10043000800070938B0060938A00089584B5806873
:1004400084BD67BD089584B5806284BD68BD08958C
:100450008091800080688093800070938900609311
:10046000880008958091B00080688093B000609308
:10047000B30008958091B00080628093B0006093D3
:10048000B40008953FB7F8948091890190918A0152
:10049000A0918B01B0918C0126B5A89B05C02F3F80
:1004A00019F00196A11DB11D3FBFBA2FA92F982F9A
:1004B0008827BC01CD01620F711D811D911D42E095
:1004C000660F771F881F991F4A95D1F708958F925D
:1004D0009F92AF92BF92CF92DF92EF92FF920E94D3
:1004E00042024B015C0180EDC82E87E0D82EE12C42
:1004F000F12C0E944202681979098A099B09683E19
:10050000734081059105A8F321E0C21AD108E108E2
:10051000F10888EE880E83E0981EA11CB11CC1145E
:10052000D104E104F10429F7FF90EF90DF90CF9020
:10053000BF90AF909F908F900895FC010190002094
:10054000E9F73197AF01481B590BBC018DE891E0E9
:100550000C94A6008F929F92AF92BF920F931F931D
:10056000CF93DF93CDB7DEB7A1970FB6F894DEBF78
:100570000FBECDBF19A2423008F44AE08E010F5DD4
:100580001F4F842E912CB12CA12CA50194010E9407
:100590008B07E62FB901CA01EA30F4F4E05DD80117
:1005A000EE938D01232B242B252B79F790E080E00F
:1005B000109719F0CD010E949D02A1960FB6F894F4
:1005C000DEBF0FBECDBFDF91CF911F910F91BF90C6
:1005D000AF909F908F900895E95CE1CFCF93DF9328
:1005E0000E949D02EC0182E191E00E949D028C0F2D
:1005F0009D1FDF91CF9108954F925F926F927F92EE
:100600008F929F92AF92BF92CF92DF92EF92FF9222
:100610006B017C01AC019B010E9486078823C1F01D
:1006200085E191E00E949D027C0182E191E00E94BF
:100630009D028E0D9F1DFF90EF90DF90CF90BF9099
:10064000AF909F908F907F906F905F904F900895A4
:1006500046015701E894B7F82FEF3FEF4FE75FE708
:10066000C501B4010E94860781110DC02FEF3FEF35
:100670004FE75FE7C501B4010E942E0618161CF46F
:1006800089E191E0CFCF2FEF3FEF4FE75FE4C70164
:10069000B6010E94140718161CF48DE191E0C2CF38
:1006A0002FEF3FEF4FE75FECC701B6010E942E0628
:1006B00087FDF3CF20E030E0A901C701B6010E9419
:1006C0002E06B12CA12C87FF0AC06DE28DE891E0C7
:1006D0000E9446015C01F7FAF094F7F8F0942AE0E2
:1006E00037ED43EA5BE3C701B6010E94C2052B0167
:1006F0003C010E9433066B017C010E9462069B0153
:10070000AC01C301B2010E94C1052B013C014AE0CA
:10071000C701B6010E94AA027C01EA0CFB1C6EE232
:100720008DE891E00E944601E80EF91E20E030E0DD
:1007300040E251E4C301B2010E9419072B013C01C0
:100740000E9433064B01B12CA12C4AE0C501B40133
:100750000E94AA02E80EF91EC501B4010E946206B9
:100760009B01AC01C301B2010E94C10520E030E051
:1007700040E251E40E9419070E94330690E080E0B5
:100780004AE00E94AA02E80EF91E4FCF1F920F9274
:100790000FB60F9211242F933F934F935F936F9354
:1007A0007F938F939F93AF93BF93EF93FF938DE8C6
:1007B00091E00E942401FF91EF91BF91AF919F9131
:1007C0008F917F916F915F914F913F912F910F90FA
:1007D0000FBE0F901F9018951F920F920FB60F9299
:1007E00011242F938F939F93EF93FF93E0919D019B
:1007F000F0919E018081E091A301F091A40182FD1E
:100800001BC090818091A6018F5F8F732091A701FB
:10081000821741F0E091A601F0E0E357FE4F958F7B
:100820008093A601FF91EF919F918F912F910F904F
:100830000FBE0F901F9018958081F4CF1F920F92DA
:100840000FB60F9211242F933F938F939F93AF93E3
:10085000BF938091850190918601A0918701B0910D
:1008600088013091840123E0230F2D3758F501963C
:10087000A11DB11D20938401809385019093860171
:10088000A0938701B09388018091890190918A019A
:10089000A0918B01B0918C010196A11DB11D809397
:1008A000890190938A01A0938B01B0938C01BF9131
:1008B000AF919F918F913F912F910F900FBE0F900D
:1008C0001F90189526E8230F0296A11DB11DD2CFC7
:1008D000789484B5826084BD84B5816084BD85B51B
:1008E000826085BD85B5816085BD80916E00816027
:1008F00080936E00109281008091810082608093CD
:1009000081008091810081608093810080918000CE
:100910008160809380008091B10084608093B100F9
:100920008091B00081608093B00080917A008460F3
:1009300080937A0080917A00826080937A0080911F
:100940007A00816080937A0080917A008068809339
:100950007A001092C100E0919D01F0919E0182E029
:100960008083E0919901F0919A011082E0919B01BE
:10097000F0919C018FEC80831092A501E091A10180
:10098000F091A20186E08083E0919F01F091A001A7
:10099000808180618083E0919F01F091A00180813E
:1009A00088608083E0919F01F091A0018081806840
:1009B0008083E0919F01F091A00180818F7D8083F1
:1009C00088E00E94870087E00E94870085E00E94FF
:1009D000870010E4C0E0D0E010937C0080917A00A2
:1009E000806480937A0080917A0086FDFCCF8091AC
:1009F000780060917900762F682F072E000C880B05
:100A0000990B0E94640623E030E040EA5BE30E9419
:100A100019074B015C0120E030E048EC52E40E94F1
:100A200019076B017C0181E291E00E949D02C501E2
:100A3000B4010E94FC028CE291E00E949D02C70179
:100A4000B6010E94FC0286E391E00E949D0226E628
:100A500036E646EE5FE3C701B6010E94190720E0C3
:100A600030E040E052E40E94C2050E94FC0220E017
:100A700030E040ED51E4C701B6010E94140787FD44
:100A80002AC080E491E00E94EE0261E088E00E94CA
:100A9000B30185E00E94870064E170E085E00E9478
:100AA000FF010E94670260E087E00E94B30185E0D9
:100AB0000E94870060E085E00E94B3010E94670207
:100AC000209709F489CF0E941001882309F484CF6C
:100AD0000E94000081CF20E030E048EC51E4C701E3
:100AE000B6010E942E061816A4F086E591E00E9439
:100AF000EE0260E088E00E94B30185E00E9487007A
:100B000060E570E085E00E94FF010E94670261E0FD
:100B1000CBCF8DE691E00E94EE0260E088E00E947B
:100B2000B30160E087E0C8CFEDE8F1E01382128204
:100B300088EE93E0A0E0B0E084839583A683B7833A
:100B400084E091E09183808385EC90E095878487B1
:100B500084EC90E09787868780EC90E0918B808B87
:100B600081EC90E0938B828B82EC90E0958B848B70
:100B700086EC90E0978B868B118E128E138E148EDE
:100B800008955058BB27AA270E94D9050C94DA066D
:100B90000E94CC0638F00E94D30620F039F49F3F23
:100BA00019F426F40C94C9060EF4E095E7FB0C94B6
:100BB000C306E92F0E94EB0658F3BA1762077307C2
:100BC0008407950720F079F4A6F50C940D070EF430
:100BD000E0950B2EBA2FA02D0B01B90190010C014D
:100BE000CA01A0011124FF27591B99F0593F50F465
:100BF000503E68F11A16F040A22F232F342F4427BD
:100C0000585FF3CF469537952795A795F0405395B4
:100C1000C9F77EF41F16BA0B620B730B840BBAF084
:100C20009150A1F0FF0FBB1F661F771F881FC2F7EF
:100C30000EC0BA0F621F731F841F48F48795779503
:100C40006795B795F7959E3F08F0B0CF9395880FBD
:100C500008F09927EE0F9795879508950E949F06B3
:100C600008F481E008950E94F30688F09F5798F0F9
:100C7000B92F9927B751B0F0E1F0660F771F881FA1
:100C8000991F1AF0BA95C9F714C0B13091F00E94BB
:100C90000D07B1E008950C940D07672F782F882772
:100CA000B85F39F0B93FCCF3869577956795B395E2
:100CB000D9F73EF490958095709561957F4F8F4F51
:100CC0009F4F0895E89409C097FB3EF49095809556
:100CD000709561957F4F8F4F9F4F9923A9F0F92F02
:100CE00096E9BB279395F695879577956795B79580
:100CF000F111F8CFFAF4BB0F11F460FF1BC06F5F66
:100D00007F4F8F4F9F4F16C0882311F096E911C077
:100D1000772321F09EE8872F762F05C0662371F098
:100D200096E8862F70E060E02AF09A95660F771FAC
:100D3000881FDAF7880F9695879597F90895990F88
:100D40000008550FAA0BE0E8FEEF16161706E80795
:100D5000F907C0F012161306E407F50798F0621BB6
:100D6000730B840B950B39F40A2661F0232B242B8B
:100D7000252B21F408950A2609F4A140A6958FEFAA
:100D8000811D811D089597F99F6780E870E060E0FC
:100D900008959FEF80EC089500240A941616170614
:100DA00018060906089500240A941216130614065C
:100DB00005060895092E0394000C11F4882352F0BF
:100DC000BB0F40F4BF2B11F460FF04C06F5F7F4F77
:100DD0008F4F9F4F089557FD9058440F551F59F05E
:100DE0005F3F71F04795880F97FB991F61F09F3F18
:100DF00079F087950895121613061406551FF2CF41
:100E00004695F1DF08C0161617061806991FF1CF90
:100E100086957105610508940895E894BB276627B7
:100E20007727CB0197F908950E949F0608F48FEF6A
:100E300008950E942C070C94DA060E94CC0638F024
:100E40000E94D30620F0952311F00C94C3060C9455
:100E5000C90611240C940E070E94EB0670F3959FAF
:100E6000C1F3950F50E0551F629FF001729FBB27A1
:100E7000F00DB11D639FAA27F00DB11DAA1F649F3D
:100E80006627B00DA11D661F829F2227B00DA11DF0
:100E9000621F739FB00DA11D621F839FA00D611D76
:100EA000221F749F3327A00D611D231F849F600D97
:100EB000211D822F762F6A2F11249F5750409AF0C0
:100EC000F1F088234AF0EE0FFF1FBB1F661F771F4C
:100ED000881F91505040A9F79E3F510580F00C9417
:100EE000C3060C940E075F3FE4F3983ED4F3869557
:100EF00077956795B795F795E7959F5FC1F7FE2BB7
:100F0000880F911D9695879597F908950E949F06E1
:100F1000880B990B0895A1E21A2EAA1BBB1BFD0199
:100F20000DC0AA1FBB1FEE1FFF1FA217B307E407C8
:100F3000F50720F0A21BB30BE40BF50B661F771F20
:100F4000881F991F1A9469F7609570958095909500
:100F50009B01AC01BD01CF010895EE0FFF1F05906D
:0A0F6000F491E02D0994F894FFCFFE
:100F6A00000000004601A600D30093010401E2003C
:100F7A00F6000D0A006E616E00696E66006F766695
:100F8A0000546567616E67616E3A20005375687533
:100F9A002843293A2000537568752846293A2000C3
:100FAA005761726E696E672C2053697374656D2080
:100FBA0050414E4153005761726E696E672C20533F
:100FCA00697374656D2044494E47494E00537973DD
:100FDA0074656D2042657266756E67736920424159
:040FEA00494B00006F
:00000001FF
